S01100004573636C61766F20312E73726563F5
S11300000C9434000C9451000C9451000C94510045
S11300100C9451000C9451000C9451000C94510018
S11300200C9451000C9451000C9451000C94510008
S11300300C9451000C9451000C9451000C945100F8
S11300400C9451000C9451000C9451000C945100E8
S11300500C9451000C9451000C9451000C945100D8
S11300600C9467050C94510011241FBECFEFD8E007
S1130070DEBFCDBF11E0A0E0B1E0E4E2FFE002C0EA
S113008005900D92AA30B107D9F721E0AAE0B1E0BA
S113009001C01D92AB31B207E1F70E9483000C94BA
S11300A090070C94000097B19F7C97B9880F8160EA
S11300B08093BA0085E48093BC000895F89484B1D9
S11300C08E6184B98AB188608AB988E090E00E9420
S11300D0EB0560E082E00E94CA0560E081E00E94D6
S11300E0CA058FE295E70E9412060E94520683E039
S11300F00E9453000E94A1060E94E80685B18F6EFB
S113010085B9789408950E945E0080910F019091C2
S11301101001009709F48FC48130910599F420915E
S11301200601309107012B5F3F4F30930701209365
S113013006012E3F310534F02FEF30E030930701F4
S1130140209306018230910589F4209106013091B3
S1130150070125503109309307012093060122300D
S1130160310524F4109207011092060184309105A0
S113017099F420910201309103012B5F3F4F30939A
S11301800301209302012E3F310534F02FEF30E0BC
S113019030930301209302018330910589F4209167
S11301A0020130910301255031093093030120935A
S11301B002012230310524F410920301109202014D
S11301C08630910599F420910001309101012E5F50
S11301D03F4F30930101209300012E3F310534F04D
S11301E02FEF30E030930101209300018530910519
S11301F089F420910001309101012250310930939A
S11302000101209300012230310524F410920101F0
S1130210109200018730910599F4209104013091E6
S11302200501295F3F4F30930501209304012E3FC0
S1130230310534F02FEF30E03093050120930401B1
S11302408830910589F420910401309105012750EB
S1130250310930930501209304012230310524F43F
S113026010920501109204018A30910519F421E0DD
S113027020930E018B30910531F410920E011092EF
S1130280120110921101449759F481E090E0909387
S113029012018093110110920E0185B18F7E85B9F0
S11302A080910F01909110010C9739F480910E0107
S11302B0813019F485B1806185B980910F019091E5
S11302C010018B34910521F4109212011092110146
S11302D00D9709F0ACC380910E01813009F0A7C3DA
S11302E085B18F7E85B980910D01823009F0CFC12F
S11302F062E080E590E00E9423062FEF83EC99E012
S1130300215080409040E1F700C0000062E08FE897
S113031090E00E946C068FE19EE40197F1F700C023
S1130320000061E082E390E00E946C068FE19EE4AD
S11303300197F1F700C0000061E084EB90E00E94B7
S113034023069FEF20E782E0915020408040E1F7B0
S113035000C0000012C061E00E946C068FE59AEEB6
S11303600197F1F700C0000080910401909105010C
S1130370019690930501809304018091040190916A
S113038005018F3F910539F334F39FEF29EF80E0A6
S1130390915020408040E1F700C0000012C062E0AC
S11303A00E9423068FE59AEE0197F1F700C0000042
S11303B0809102019091030101969093030180932F
S11303C002018091020190910301893791053CF368
S11303D09FEF29EF80E0915020408040E1F700C07A
S11303E0000012C061E00E9423068FE59AEE019797
S11303F0F1F700C000008091060190910701019679
S11304009093070180930601809106019091070162
S11304108B3F91053CF39FEF29EF80E09150204002
S11304208040E1F700C0000012C061E00E946C0649
S11304308FE59AEE0197F1F700C000008091040166
S11304409091050101979093050180930401809197
S11304500401909105018E3B91053CF79FEF23EF3A
S113046081E0915020408040E1F700C0000012C0BC
S113047061E00E9423068FE59AEE0197F1F700C030
S11304800000809106019091070101979093070164
S1130490809306018091060190910701883C9105A3
S11304A03CF79FEF29EF80E0915020408040E1F736
S11304B000C0000012C062E00E946C068FE59AEE54
S11304C00197F1F700C000008091000190910101B3
S11304D00196909301018093000180910001909115
S11304E00101873B91053CF39FEF23ED80E391509D
S11304F020408040E1F700C0000012C062E00E948A
S113050023068FE59AEE0197F1F700C00000809171
S113051002019091030101969093030180930201DB
S11305208091020190910301813A91053CF39FEF80
S113053023ED80E3915020408040E1F700C00000AB
S113054012C061E00E946C068FE59AEE0197F1F704
S113055000C00000809104019091050101969093E0
S113056005018093040180910401909105018F3F5E
S1130570910539F334F39FEF23ED80E3915020404C
S11305808040E1F700C0000012C062E00E94230630
S11305908FE59AEE0197F1F700C000008091020107
S11305A0909103010197909303018093020180913C
S11305B0020190910301803591053CF79FEF29EFEB
S11305C080E0915020408040E1F700C0000012C05C
S11305D062E00E946C068FE59AEE0197F1F700C085
S11305E00000809100019091010101979093010115
S11305F08093000180910001909101018F38910551
S11306003CF79FEF29EF80E0915020408040E1F7D4
S113061000C0000012C061E00E946C068FE59AEEF3
S11306200197F1F700C00000809104019091050149
S113063001979093050180930401809104019091A6
S11306400501823391053CF79FEF29EF80E091503B
S113065020408040E1F700C0000012C061E00E9429
S113066023068FE59AEE0197F1F700C00000809110
S11306700601909107010197909307018093060169
S11306808091060190910701843B91053CF780918C
S11306900D01813009F0C6C162E080E590E00E945E
S11306A023069FEF23EC89E0915020408040E1F73E
S11306B000C0000062E08FE890E00E946C068FE1C9
S11306C09EE40197F1F700C0000061E082E390E04E
S11306D00E946C068FE19EE40197F1F700C00000D0
S11306E061E084EB90E00E94230612C062E00E9465
S11306F023068FE59AEE0197F1F700C00000809180
S113070002019091030101979093030180930201E8
S11307108091020190910301863491053CF79FEF8B
S113072029EF80E0915020408040E1F700C00000B4
S113073012C061E00E946C068FE59AEE0197F1F712
S113074000C00000809104019091050101969093EE
S113075005018093040180910401909105018F3F6C
S1130760910539F334F39FEF29EF80E09150204055
S11307708040E1F700C0000012C061E00E9423063F
S11307808FE59AEE0197F1F700C000008091060111
S1130790909107010196909307018093060180913F
S11307A00601909107018B3F91053CF39FEF29EFE0
S11307B080E0915020408040E1F700C0000012C06A
S11307C061E00E946C068FE59AEE0197F1F700C094
S11307D00000809104019091050101979093050117
S11307E0809304018091040190910501823D91055B
S11307F03CF79FEF23EF81E0915020408040E1F7E8
S113080000C0000012C061E00E9423068FE59AEE4A
S11308100197F1F700C00000809106019091070153
S113082001979093070180930601809106019091AE
S11308300701883C91053CF79FEF29EF80E0915038
S113084020408040E1F700C0000012C062E00E9436
S11308506C068FE59AEE0197F1F700C000008091D5
S1130860000190910101019790930101809300018F
S11308708091000190910101843691053CF79FEF2E
S113088023ED80E3915020408040E1F700C0000058
S113089012C062E00E9423068FE59AEE0197F1F7F9
S11308A000C0000080910201909103010196909391
S11308B00301809302018091020190910301873921
S11308C091053CF39FEF23ED80E39150204080405D
S11308D0E1F700C0000012C061E00E946C068FE5E1
S11308E09AEE0197F1F700C0000080910401909105
S11308F00501019690930501809304018091040100
S1130900909105018F3F910539F334F39FEF23ED67
S113091080E3915020408040E1F700C0000012C005
S113092062E00E9423068FE59AEE0197F1F700C07A
S113093000008091020190910301019790930301BB
S11309408093020180910201909103018035910509
S11309503CF79FEF29EF80E0915020408040E1F781
S113096000C0000012C062E00E946C068FE59AEE9F
S11309700197F1F700C000008091000190910101FE
S11309800196909301018093000180910001909160
S11309900101803991053CF39FEF29EF80E09150EC
S11309A020408040E1F700C0000012C061E00E94D6
S11309B06C068FE59AEE0197F1F700C00000809174
S11309C0040190910501019790930501809304011E
S11309D08091040190910501823391053CF79FEFCA
S11309E029EF80E0915020408040E1F700C00000F2
S11309F012C061E00E9423068FE59AEE0197F1F799
S1130A0000C0000080910601909107010197909326
S1130A100701809306018091060190910701843BB0
S1130A2091053CF789E080930D0110920C0110921E
S1130A30100110920F0180910E01813029F50E945E
S1130A40EF0690930B0180930A0190931201809317
S1130A5011018430910548F420910C01211105C045
S1130A6021E020930D0120930C010497039738F49F
S1130A7080910C01811103C082E080930D0180916B
S1130A800D0190E00E94CD0661E0809104019091F7
S1130A9005010E946C0662E08091020190910301BD
S1130AA00E94230661E080910601909107010E9453
S1130AB0230662E080910001909101010E946C067E
S1130AC08FE59AEE0197F1F700C000001ECB1F924C
S1130AD00F920FB60F9211248F939F93EF93FF936E
S1130AE08091B9008C7F8039D1F040F4803789F04F
S1130AF08038A9F0803609F03FC00BC0883B69F10B
S1130B0018F4883A51F138C0803C81F1883C71F185
S1130B1033C0ECEBF0E080818068808332C0809148
S1130B20BB0090E09093100180930F01ECEBF0E098
S1130B3080818068808380910F0190911001449797
S1130B4001F581E090E090931201809311011092DD
S1130B500E0185B18F7E85B914C0809111018093F7
S1130B60BB00ECEBF0E08081856C8083ECEBF0E083
S1130B708081846C808305C0ECEBF0E08081806927
S1130B808083FF91EF919F918F910F900FBE0F90F3
S1130B901F901895813019F0823079F008956130F2
S1130BA031F4E0E8F0E08081806C80830895E0E82F
S1130BB0F0E08081806880830895613031F4E0E85A
S1130BC0F0E08081806380830895E0E8F0E0808134
S1130BD08062808308951092800010928100883092
S1130BE0910521F08115944039F00BC0E1E8F0E063
S1130BF080818260808305C0E1E8F0E080818560C7
S1130C008083E0E8F0E0808182608083E1E8F0E0C6
S1130C1080818861808381E090E0909309018093D2
S1130C20080108952091080130910901213031050E
S1130C3029F4909387008093860008951092090107
S1130C40109208010895613019F06230B1F00895EE
S1130C50909316018093150182959295907F982721
S1130C60807F982788519C4F90931401809313019F
S1130C70909389008093880008959093160180933F
S1130C80150182959295907F9827807F98278851A7
S1130C909C4F909314018093130190938B00809345
S1130CA08A000895E0EBF0E01082A1EBB0E01C9222
S1130CB080818068808380818062808380818B6072
S1130CC080838C91877F8C938C9187608C9387E051
S1130CD08093B30018BC0895613019F06230C9F0F4
S1130CE0089590931A018093190145E1489F90015A
S1130CF0499F300D1124C9016FEF70E00E9419075C
S1130D00695F7F4F70931801609317016093B3007C
S1130D10089590931A01809319014FE1489F90011F
S1130D20499F300D1124C9016FEF70E00E9419072B
S1130D30695F7F4F70931801609317016093B4004B
S1130D4008958AB18E7F8AB98AB182608AB9109275
S1130D50C000E1ECF0E01082808188698083E2ECDD
S1130D60F0E0108280818660808387E690E0909333
S1130D70C5008093C4000895AC0120E007C09091A1
S1130D80C00095FFFCCF3093C6002F5FFA01E20F3D
S1130D90F11D30813111F3CF0895CF93DF9300D04B
S1130DA000D000D0CDB7DEB74AE050E0BE016F5F9F
S1130DB07F4F0E945007CE0101960E94BC062696E2
S1130DC00FB6F894DEBF0FBECDBFDF91CF9108956B
S1130DD08AB180648AB98AB18F778AB908958BB150
S1130DE08F7B8BB98AE08A95F1F700C08BB1806460
S1130DF08BB985E38A95F1F700008BB18F7B8BB9B2
S1130E004F9BFECF20E030E006C02F5F3F4F85E0D0
S1130E108A95F1F700004F99F8CFAFE9B6E40E9444
S1130E202D07929582958F7089279F708927019647
S1130E30089597FB072E16F4009407D077FD09D088
S1130E400E943C0707FC05D03EF4909581959F4F86
S1130E500895709561957F4F0895A29FB001B39F47
S1130E60C001A39F700D811D1124911DB29F700DAF
S1130E70811D1124911D0895AA1BBB1B51E107C0BC
S1130E80AA1FBB1FA617B70710F0A61BB70B881F16
S1130E90991F5A95A9F780959095BC01CD010895A5
S1130EA04532510520F4423010F00C945B07FB01ED
S1130EB01082CB010895BB274A3031F4992322F4E0
S1130EC0BDE2909581959F4F0C946707BB27FB016A
S1130ED05527AA27880F991FAA1FA41710F0A41B2F
S1130EE083955051B9F7A05DAA3308F0A95DA19389
S1130EF0009779F7B111B1931192CB010C9480074B
S1130F00DC01FC01672F71917723E1F7329704C06C
S1130F107C916D9370836291AE17BF07C8F30895F7
S1070F20F894FFCF6F
S10D0F248F0050003200B4000100F9
S9030000FC
