S00F00004D61657374726F2E737265633A
S11300000C9434000C9484050C9451000C94040555
S11300100C9451000C9451000C9451000C94510018
S11300200C9451000C9451000C9451000C94510008
S11300300C9451000C9451000C9451000C945100F8
S11300400C9451000C9451000C94F0040C94510045
S11300500C9451000C9451000C9451000C945100D8
S11300600C9451000C94510011241FBECFEFD8E022
S1130070DEBFCDBF11E0A0E0B1E0E4E1FEE002C0EC
S113008005900D92AC33B107D9F721E0ACE3B1E0B0
S113009001C01D92A736B207E1F70E9476010C94C5
S11300A008070C940000CF93C82F9A01AB0187B1C5
S11300B08F7C87B960E074E284EF90E00E94A6062A
S11300C0CA01B90160517109810991092C2F30E0ED
S11300D0220F331F032E000C440B550B0E94A6065F
S11300E02093B800C43079F018F4C13031F023C043
S11300F0C03191F0C034C9F01EC0E9EBF0E080815A
S11301008C7F80831DC0E9EBF0E080818D7F80834C
S113011080818160808314C0E9EBF0E080818E7F70
S113012080838081826080830BC0E9EBF0E0808172
S11301308D6F808305C0E9EBF0E080818C7F808344
S113014084E08093BC00CF91089584EA8093BC003E
S11301508091BC008823E4F78091B900887F8830BF
S113016021F0803119F481E0089581E008958093AD
S1130170BB0084E88093BC008091BC008823E4F732
S11301808091B900887F883131F0883231F0803431
S113019029F481E0089581E0089581E0089584E9D7
S11301A08093BC008091BC0084FDFCCF0895CF9364
S11301B0C82F660F60934D010E94A50080934A01E9
S11301C0813031F0ECEBF0E080818068808310C0F6
S11301D080914D010E94B70080934A01813019F04B
S11301E00E94CF0005C08C2F0E94B7000E94CF0050
S11301F0CF910895CF93DF9394EA9093BC009091AC
S1130200BC009923E4F79091B900987F9830E1F508
S113021090E0880F991F81608093BB0084E88093ED
S1130220BC008091BC008823E4F7EB018091B90005
S1130230887F883429F40E94CF0081E090E026C0B2
S1130240803429F00E94CF0081E090E01FC084E850
S11302508093BC008091BC008823E4F78091B900AE
S1130260887F883539F0803529F00E94CF0081E0FD
S113027090E00CC08091BB0090E0998388830E9439
S1130280CF008881998102C081E090E0DF91CF9115
S11302900895F8948FEF8AB983E087B98AB18B7F88
S11302A08AB98BB184608BB914B887E085B9EBE661
S11302B0F0E0808183608083E8E6F0E08081816003
S11302C08083E9E6F0E080818C7F80838DB3816058
S11302D08DBB0E94580640E45DE063E070E084E07A
S11302E00E9453000E943906789408950E9449019F
S11302F00F2EF2E5CF2EF1E0DF2EF02D0F2EF5E6D6
S1130300EF2EF1E0FF2EF02D04E611E02FE431E0B2
S11303104EE451E066E671E083E591E00E94DD057C
S113032080914E0190E020910201309103018217E7
S1130330930731F58091660190E02091000130919E
S1130340010182179307E1F463E08AE00E94D70079
S113035080913E0190913F01181619068CF062E0DD
S11303608AE00E94D70080913E0190913F0101965E
S113037090933F0180933E0110923D0110923C0105
S113038080914E0190E020914601309147018217FF
S1130390930731F58091660190E0209144013091FA
S11303A0450182179307E1F463E08BE00E94D700D4
S11303B080913C0190913D01181619068CF0109221
S11303C041011092400110923F0110923E0110929F
S11303D0430110924201019690933D0180933C01A8
S11303E080914901882309F4F4C280914901813440
S11303F0C1F580914E0190E00E948B068AE30E9431
S113040084068091660190E00E948B068AE30E9434
S113041084068091530190E00E948B068AE391E068
S11304200E94730684E091E00E9473068091640147
S113043090E00E948B068FE20E9484068091650101
S113044090E00E948B068FE20E9484068091520104
S113045090E08053984F0E948B0686E091E00E94C2
S11304607306809149018A3521F463E08BE40E948C
S1130470D70080914901823419F481E080934801C6
S113048080914801813009F040C080914901833452
S113049021F463E081E00E94D70080914901843413
S11304A021F463E082E00E94D70080914901853401
S11304B021F463E083E00E94D700809149018634EF
S11304C021F463E084E00E94D700809149018734DD
S11304D021F463E085E00E94D700809149018834CB
S11304E021F463E086E00E94D700809149018934B9
S11304F021F463E087E00E94D700809149018A34A7
S113050021F463E088E00E94D7008091490182359C
S113051019F482E080934801809148018230A1F56A
S113052080914901853441F462E081E00E94D70062
S113053081E090E00E948B0680914901863441F469
S113054062E082E00E94D70082E090E00E948B0685
S113055080914901873441F462E083E00E94D7002E
S113056083E090E00E948B0680914901883441F435
S113057062E084E00E94D70084E090E00E948B0651
S1130580809149010E94840680914901843509F0D3
S11305905BC083E0809348018FE19EE40197F1F70B
S11305A000C0000080910201909103010E948B061B
S11305B08AE391E00E9473068AE391E00E94730645
S11305C08AE391E00E9473068AE391E00E94730635
S11305D08AE391E00E9473068AE391E00E94730625
S11305E08AE391E00E94730684E091E00E9473061E
S11305F080910001909101010E948B068AE391E0B1
S11306000E9473068AE391E00E9473068AE391E0F4
S11306100E9473068AE391E00E9473068AE391E0E4
S11306200E9473068AE391E00E9473068AE391E0D4
S11306300E94730686E091E00E9473068FE19EE4B7
S11306400197F1F700C0000080914801833009F060
S113065062C080914901813649F4809102019091F0
S11306600301019690930301809302018091490153
S1130670823649F48091020190910301019790938D
S113068003018093020180914901833649F48091EA
S11306900001909101010196909301018093000162
S11306A080914901843649F48091000190910101BF
S11306B00197909301018093000180910201909130
S11306C00301479734F087E190E09093030180930E
S11306D0020180910201909103011816190624F079
S11306E01092030110920201809100019091010186
S11306F0CB9734F08BE390E0909301018093000159
S113070080910001909101011816190624F01092AD
S113071001011092000180914901893509F053C00B
S113072084E0809348018FE19EE40197F1F700C0D3
S1130730000080914601909147010E948B068AE354
S113074091E00E9473068AE391E00E9473068AE3B3
S113075091E00E9473068AE391E00E9473068AE3A3
S113076091E00E9473068AE391E00E9473068AE393
S113077091E00E94730684E091E00E9473068091E8
S11307804401909145010E948B068AE391E00E9406
S113079073068AE391E00E9473068AE391E00E9463
S11307A073068AE391E00E9473068AE391E00E9453
S11307B0730686E091E00E9473068FE19EE4019740
S11307C0F1F700C0000080914801843009F062C054
S11307D080914901813649F4809146019091470105
S11307E00196909347018093460180914901823696
S11307F049F48091460190914701019790934701F4
S11308008093460180914901833649F480914401E3
S11308109091450101969093450180934401809104
S11308204901843649F4809144019091450101972E
S11308309093450180934401809146019091470132
S1130840479734F087E190E0909347018093460105
S113085080914601909147011816190624F01092D0
S11308604701109246018091440190914501CB9734
S113087034F08BE390E090934501809344018091A0
S11308804401909145011816190624F0109245016F
S113089010924401809149018B3409F098C08091F1
S11308A0400190914101892BA9F062E085E00E940A
S11308B0D7009FEF20E782E0915020408040E1F78D
S11308C000C0000062E089E00E94D700109241015C
S11308D0109240018FE39CE90197F1F700C00000FA
S11308E060E571E083E00E94FA00909351018093E7
S11308F050010E948B0684E091E00E94730680916F
S113090050019091510102970297A8F488E091E078
S11309100E94730686E091E00E94730662E086E01E
S11309200E94D7009FEF2FE483EC91502040804039
S1130930E1F700C0000080915001909151010497AB
S11309400297B0F48DE191E00E94730686E091E095
S11309500E94730662E087E00E94D7009FEF2FE4B5
S113096083EC915020408040E1F700C0000008C0B3
S113097080E391E00E94730686E091E00E94730692
S11309808091500190915101892B09F58091420188
S11309909091430118161906D4F062E085E00E9494
S11309A0D7009FEF20E782E0915020408040E1F79C
S11309B000C0000062E089E00E94D70080914201FB
S11309C090914301019690934301809342011092C8
S11309D049018FE39CE90197F1F700C0000088CC3E
S11309E01F920F920FB60F9211248F938091C6001D
S11309F0809349018091C00085FFFCCF8F910F90B7
S1130A000FBE0F901F9018951F920F920FB60F9262
S1130A1011242F933F934F935F936F937F938F93FF
S1130A209F93AF93BF93EF93FF93189916C02FEF43
S1130A3089EF90E0215080409040E1F700C0000031
S1130A4063E08CE00E94D70006C08FE39CE9019725
S1130A50F1F700C00000189BF8CF199944C063E077
S1130A6084E10E94D70081E090E00E948B0684E03C
S1130A7091E00E94730686E091E00E9473069FEF66
S1130A8029EF80E0915020408040E1F700C0000051
S1130A9063E084E10E94D7009FEF23EF81E091504F
S1130AA020408040E1F700C0000063E084E10E9440
S1130AB0D7008FE39CE90197F1F700C00000809113
S1130AC0400190914101181619066CF062E088E02B
S1130AD00E94D7008091400190914101019690932A
S1130AE0410180934001FF91EF91BF91AF919F919C
S1130AF08F917F916F915F914F913F912F910F90C3
S1130B000FBE0F901F9018951F920F920FB60F9261
S1130B1011242F933F934F935F936F937F938F93FE
S1130B209F93AF93BF93EF93FF934A9916C02FEF10
S1130B3089EF90E0215080409040E1F700C0000030
S1130B4063E08DE00E94D70006C08FE39CE9019723
S1130B50F1F700C000004A9BF8CFFF91EF91BF91DD
S1130B60AF919F918F917F916F915F914F913F9141
S1130B702F910F900FBE0F901F901895982F92955C
S1130B809F70990F292F220F220F920F8F70890FB8
S1130B90089584EC8093BC008091BC008823E4F722
S1130BA08091BB00089584E88093BC008091BC00D0
S1130BB08823E4F78091BB0008956F927F928F920F
S1130BC09F92AF92BF92CF92DF92EF92FF920F93D8
S1130BD01F93CF93DF934C015B01EA0139010E941B
S1130BE0A50080ED90E00E94B70080E090E00E94B4
S1130BF0B7000E94A50081ED90E00E94B7000E941A
S1130C00C9050E94BE05F40180830E94C9050E94A3
S1130C10BE05F50180830E94C9050E94BE05888334
S1130C200E94C9050E94BE05F30180830E94C90584
S1130C300E94BE05F80180830E94C9050E94BE057A
S1130C40F70180830E94D3050E94BE05F6018083CC
S1130C500E94CF00DF91CF911F910F91FF90EF90F1
S1130C60DF90CF90BF90AF909F908F907F906F90C8
S1130C70089584B18C6284B984B18F7E84B98CB5B3
S1130C808F7D8CBD8CB5877F8CBD8CB58B7F8CBDE7
S1130C908CB581608CBD8CB58D7F8CBD8DB58E7F00
S1130CA08DBD8CB580618CBD8CB580648CBD089580
S1130CB08AB18E7F8AB98AB182608AB91092C000E3
S1130CC0E1ECF0E01082808188698083E2ECF0E05E
S1130CD0108280818660808387E690E09093C500CF
S1130CE08093C4000895AC0120E007C09091C00037
S1130CF095FFFCCF3093C6002F5FFA01E20FF11D80
S1130D0030813111F3CF08959091C00095FFFCCF4D
S1130D108093C6000895CF93DF9300D000D000D015
S1130D20CDB7DEB74AE050E0BE016F5F7F4F0E944F
S1130D30C806CE0101960E94730626960FB6F89453
S1130D40DEBF0FBECDBFDF91CF910895A1E21A2E71
S1130D50AA1BBB1BFD010DC0AA1FBB1FEE1FFF1F5B
S1130D60A217B307E407F50720F0A21BB30BE40BAB
S1130D70F50B661F771F881F991F1A9469F76095F2
S1130D807095809590959B01AC01BD01CF010895AC
S1130D904532510520F4423010F00C94D306FB0187
S1130DA01082CB010895BB274A3031F4992322F4F1
S1130DB0BDE2909581959F4F0C94DF06BB27FB0104
S1130DC05527AA27880F991FAA1FA41710F0A41B40
S1130DD083955051B9F7A05DAA3308F0A95DA1939A
S1130DE0009779F7B111B1931192CB010C94F806E5
S1130DF0DC01FC01672F71917723E1F7329704C07E
S1130E007C916D9370836291AE17BF07C8F3089508
S1070E10F894FFCF80
S1130E14020009005F000A00466F726D61746F205E
S1130E246772616E646520202020202000466F7262
S1130E346D61746F20636F72746F20202020200012
S10F0E442020202020202020202020003E
S9030000FC
