S0160000436F6E74726F6C5F72656D6F746F2E7372656338
S11300000C9434000C9451000C9451000C94EB04A7
S11300100C9451000C9451000C9451000C94510018
S11300200C9451000C9451000C9451000C94510008
S11300300C9451000C9451000C9451000C945100F8
S11300400C9451000C9451000C941C040C94510019
S11300500C9451000C9469040C9451000C945100BC
S11300600C9451000C94510011241FBECFEFD8E022
S1130070DEBFCDBF12E0A0E0B1E0E0E5FCE002C0ED
S113008005900D92AE32B107D9F722E0AEE2B2E0AC
S113009001C01D92AD37B207E1F70E9463010C94D1
S11300A026060C940000ECE7F0E08081887F8083D2
S11300B0AEE7B0E08C9181608C938C9182608C93DC
S11300C08C9184608C938C9188608C938081806205
S11300D0808380818064808380818F778083EAE756
S11300E0F0E0808188608083808187608083808164
S11300F08068808308959BB19F70282F207F922B66
S11301009BB99BB19B7F9BB99BB198609BB935E030
S11301103A95F1F700009BB1977F9BB9EFE1F3E0CB
S11301203197F1F700C000002BB1F0E18F9FC001BF
S11301301124922F9F70892B8BB98BB188608BB956
S113014035E03A95F1F700008BB1877F8BB98FE3E7
S11301509FE10197F1F700C0000008959BB19F70E3
S1130160282F207F922B9BB99BB194609BB99BB1A4
S113017098609BB935E03A95F1F700009BB1977F01
S11301809BB9EFE1F3E03197F1F700C000002BB128
S1130190F0E18F9FC0011124922F9F70892B8BB99E
S11301A08BB188608BB935E03A95F1F700008BB1DB
S11301B0877F8BB98FE39FE10197F1F700C00000BF
S11301C008952FEF89EF90E0215080409040E1F7AF
S11301D000C0000082E00E947B0088E20E947B0055
S11301E08CE00E947B0086E00E947B0081E00E94FC
S11301F07B008FE39FE10197F1F700C000000895B1
S1130200813019F480E8860F06C0823019F480EC3E
S1130210860F01C080E80E947B00089581E00E945F
S11302207B008FE39FE10197F1F700C00000089580
S1130230CF93DF93EC0103C021960E94AE00888126
S11302408111FACFDF91CF910895F8948FEF8AB995
S113025080E287B984B98FE185B9EBE6F0E080816B
S11302608F618083E8E6F0E08081816080830E9472
S1130270E1000E94E1050E9453002FEF83ED90E31B
S1130280215080409040E1F700C0000060E081E030
S11302900E94000182E091E00E94180160E082E087
S11302A00E94000183E191E00E9418012FEF83E294
S11302B094EF215080409040E1F700C000000E947C
S11302C00E01789408950E9425018091370290913F
S11302D03802892BB1F58091300290913102892B3B
S11302E081F560E081E00E94000184E291E00E94D7
S11302F0180160E082E00E94000184E391E00E9422
S1130300180188B1806288B985B18F7D85B92FEFD6
S11303108FE493EC215080409040E1F700C000004E
S1130320C1E0D0E0D0933302C093320210922F0286
S113033010922E020E940E01D0933102C09330021B
S1130340B8C18091370290913802019749F5109213
S113035033021092320281E40E94FC0560E081E0E5
S11303600E94000185E491E00E94180186E492E075
S11303700E94180160E082E00E9400018CE491E098
S11303800E9418018EE692E00E9418012FEF83ED7F
S113039090E3215080409040E1F700C0000089C103
S11303A08091370290913802029709F06BC060E0A7
S11303B081E00E94000183E591E00E94180160E061
S11303C082E00E94000184E691E00E9418011092EC
S11303D001011092000182E40E94FC058FE19EE479
S11303E00197F1F700C0000080913F029091400214
S11303F08A3F91051CF083E40E94FC0580913F0232
S1130400909140020B971CF484E40E94FC058091B7
S11304103B0290913C028A3F91051CF086E40E94C5
S1130420FC0580913B0290913C020B971CF485E4FF
S11304300E94FC058091390290913A02863E910512
S11304401CF087E40E94FC058091390290913A02E5
S11304504F971CF488E40E94FC0580913D02909122
S11304603E028A3F91051CF089E40E94FC058091BC
S11304703D0290913E020B970CF01BC18AE40E944E
S1130480FC0517C18091370290913802039709F057
S113049047C08FE19EE40197F1F700C0000060E0DF
S11304A081E00E94000185E791E00E94180160E06C
S11304B082E00E94000186E891E00E94180182E532
S11304C00E94FC058FE19EE40197F1F700C0000053
S11304D080913D0290913E028A3F91051CF085E493
S11304E00E94FC0580913D0290913E020B971CF402
S11304F086E40E94FC058091390290913A028A3F79
S113050091051CF087E40E94FC05809139029091CA
S11305103A020B970CF0CDC088E40E94FC05C9C0D8
S113052080913702909138020497B9F58FE19EE4E7
S11305300197F1F700C0000060E081E00E94000133
S113054087E991E00E94180160E082E00E940001C6
S113055088EA91E00E9418019FEF2BE782E991500D
S113056020408040E1F700C0000085E090E09093D7
S11305703802809337020E940E019FEF20E782E049
S1130580915020408040E1F700C0000081E090E0FD
S113059090930101809300018CC080913702909167
S11305A03802069789F58FE19EE40197F1F700C0C0
S11305B0000060E081E00E94000187E991E00E9470
S11305C0180160E082E00E94000189EB91E00E9442
S11305D018019FEF2BE782E9915020408040E1F71A
S11305E000C0000087E090E09093380280933702C7
S11305F00E940E019FEF20E782E09150204080404E
S1130600E1F700C0000055C0809137029091380294
S1130610079729F589E50E94FC0560E081E00E94C6
S1130620000185E491E00E94180186E492E00E94B2
S1130630180160E082E00E9400018AEC91E00E94CF
S113064018018EE692E00E9418019FEF21EE84E0EB
S1130650915020408040E1F700C000002AC0809102
S1130660370290913802059721F584E50E94FC0534
S113067060E081E00E94000185E491E00E9418019D
S113068086E492E00E94180160E082E00E9400018A
S11306908AEC91E00E9418018EE692E00E94180113
S11306A09FEF21EE84E0915020408040E1F700C0AC
S11306B000008091320290913302019709F081C0C9
S11306C080912E0290912F02892B09F07AC08BE43D
S11306D00E94FC0563ED71E086E492E00E940E0640
S11306E0892B89F460E081E00E94000185ED91E0AE
S11306F00E94180160E082E00E94000186EE91E011
S11307000E94180155C067EF71E086E492E00E94F0
S11307100E06892B89F50E940E0188B18F7D88B958
S113072085B1806285B99FEF21EE84E0915020402D
S11307308040E1F700C0000060E081E00E94000119
S113074089EF91E00E94180160E082E00E940001BC
S11307508AE092E00E94180181E090E090932F02D9
S113076080932E029FEF2FE483EC91502040804031
S1130770E1F700C000001CC0809146028823C1F04C
S113078060E081E00E9400018BE192E00E94180188
S113079086E492E00E94180184E292E00E9418012B
S11307A060E082E00E9400018EE692E00E9418015F
S11307B09FEF21EE84E0915020408040E1F700C09B
S11307C000008091000190910101892B09F07DCDF9
S11307D0EAE7F0E080818064808377CD0F931F93F4
S11307E0CF93DF936FE570E080E592E00E9403060B
S11307F0EC010097E1F08C01005512400A3011051C
S113080058F4A80160E572E086E492E00E941706BD
S1130810F801EA5BFD4F1082BE016F5F7F4F4EE02F
S113082050E08EE692E00E94170610927C02DF915F
S1130830CF911F910F9108951F920F920FB60F92AF
S113084011242F933F934F935F936F937F938F93D1
S11308509F93AF93BF93EF93FF938091C6008093D0
S11308604502809145028A3021F0809145028D3005
S113087059F4E0913402F0E0E05BFD4F10821092F5
S113088034020E94EE0310C0809134028D3160F472
S1130890E091340281E08E0F80933402F0E0809185
S11308A04502E05BFD4F80838091C00085FFFCCF53
S11308B0FF91EF91BF91AF919F918F917F916F9134
S11308C05F914F913F912F910F900FBE0F901F900A
S11308D018951F920F920FB60F9211248F939F9326
S11308E0EF93FF938091430290914402892B09F086
S11308F064C0809141029091420281309105F1F0EF
S11309001CF4892B41F059C08230910569F1039799
S113091009F440C052C0ECE7F0E08081887F808316
S113092081E090E0909342028093410280917900AB
S113093090E09093400280933F023FC0ECE7F0E0E8
S11309408081887F808380818160808382E090E0E1
S113095090934202809341028091790090E09093B9
S11309603C0280933B0229C0ECE7F0E08081887F61
S1130970808380818260808383E090E09093420250
S1130980809341028091790090E090933A028093A1
S1130990390213C0ECE7F0E08081887F8083808196
S11309A08360808310924202109241028091790008
S11309B090E090933E0280933D02EAE7F0E080816C
S11309C080618083FF91EF919F918F910F900FBE73
S11309D00F901F9018951F920F920FB60F9211242B
S11309E02F933F934F935F936F937F938F939F9333
S11309F0AF93BF93CF93EF93FF9318993CC02FEF1E
S1130A0089EF90E0215080409040E1F700C0000061
S1130A100E940E01AFEFBAE623E0A150B04020409F
S1130A20E1F700C0000080913702909138020196EE
S1130A3090933802809337028FE39CE90197F1F792
S1130A4000C00000809137029091380208978CF022
S1130A501092380210923702109231021092300232
S1130A600E940E0106C0AFE3BCE91197F1F700C084
S1130A700000189BF8CF199942C0BFEF26E781E028
S1130A80B15020408040E1F700C0000081E090E0D8
S1130A909093010180930001109238021092370262
S1130AA010922F0210922E028AE50E94FC058AE021
S1130AB0E6E4F2E0DF011D928A95E9F71092310233
S1130AC010923002BFEF2AE683E0B150204080400C
S1130AD0E1F700C000000E940E019FEFA9EFB0E013
S1130AE09150A040B040E1F700C0000006C08FE381
S1130AF09CE90197F1F700C00000199BF8CF8091A1
S1130B00370290913802059739F08091370290911D
S1130B103802079709F043C0C3B1C47083B1887029
S1130B2090913602C917E9F0C11119C081110CC0A6
S1130B3080913502811104C081E60E94FC050FC03A
S1130B4083E60E94FC050BC080913502811104C02C
S1130B5082E60E94FC0503C084E60E94FC05C09363
S1130B6036021C991CC09FEFA6E7B1E09150A0404B
S1130B70B040E1F700C0000080913502811104C04B
S1130B8081E08093350209C01092350206C08FE3DC
S1130B909CE90197F1F700C000001C9BF8CFFF917E
S1130BA0EF91CF91BF91AF919F918F917F916F9171
S1130BB05F914F913F912F910F900FBE0F901F9017
S1130BC018958AB18E7F8AB98AB182608AB91092E7
S1130BD0C000E1ECF0E01082808188698083E2EC5F
S1130BE0F0E0108280818660808387E690E09093B5
S1130BF0C5008093C40008959091C00095FFFCCF78
S1130C008093C6000895FC018191861721F0882302
S1130C10D9F7992708953197CF010895FB01DC0195
S1130C208D91019080190110D9F3990B0895FB015E
S1130C30DC014150504048F001900D920020C9F76A
S1130C4001C01D9241505040E0F70895F894FFCF41
S1130C50010020204269656E76656E69646F2061CB
S1130C606C200020202020636F6E74726F6C202033
S1130C70202020002046756E63696F6E616D696582
S1130C806E746F0020202020206E6F726D616C20C6
S1130C902020202000486F72613A20004665636876
S1130CA0613A00436F6E74726F6C206465206272E7
S1130CB0617A6F0020202020726F626F7469636F05
S1130CC02020202000202020436F6E74726F6C203F
S1130CD064652020200020646573706C617A616D06
S1130CE069656E746F200020202043616D62696F16
S1130CF02064652020202000686F726120646520D4
S1130D00616374697661646F00686F726120646501
S1130D10206170616761646F20004D696E75746F46
S1130D203A20003000202053697374656D6120659A
S1130D307374612020002020202061706167616449
S1130D406F2020202020003100205365206465742A
S1130D506563746F206761732000202020202020A9
S1130D602020202020202020202000416C74757237
S1110D70613A200020636D2020202020000026
S9030000FC
