S01100004573636C61766F20322E73726563F4
S11300000C943E000C9450000C9450000C9450003E
S11300100C9450000C9450000C9450000C9450001C
S11300200C9450000C9450000C9450000C9450000C
S11300300C9450000C9450000C9450000C945000FC
S11300400C9450000C9450000C94FA000C94500042
S11300500C9450000C9450000C9450000C945000DC
S11300600C940E010C9450007E009100A400B70083
S1130070CA00CF00D400D900DE00E30011241FBE63
S1130080CFEFD8E0DEBFCDBF21E0A0E0B1E001C0FA
S11300901D92A230B207E1F70E946E000C94E301B6
S11300A00C94000097B19F7C97B9880F816080936E
S11300B0BA0085E48093BC00089584B18F6084B94C
S11300C08AB1806C8AB90895F8940E945D000E94F8
S11300D0560182E00E945200789408950E946400C0
S11300E0E09101018E2F90E0FC013197EA30F10597
S11300F008F06EC0EC5CFF4F0C949D018BB18068DE
S11301008BB985B18E7F85B985B1826085B98BB194
S113011080648BB985B18B7F85B985B1886085B9D9
S11301205DC08BB180688BB985B1816085B985B1BB
S11301308D7F85B98BB180648BB985B1846085B9B5
S113014085B1877F85B94AC08BB180688BB985B189
S11301508E7F85B985B1826085B98BB180648BB996
S113016085B1846085B985B1877F85B937C08BB186
S113017080688BB985B1816085B985B18D7F85B97A
S11301808BB180648BB985B18B7F85B985B188606B
S113019085B924C081E090E00E9482011FC085E0FF
S11301A090E00E9482011AC082E090E00E948201E5
S11301B015C087E090E00E94820110C086E090E0C4
S11301C00E9482010BC088E090E00E94820106C078
S11301D08BB18F778BB98BB18F7B8BB91092010167
S11301E02FEF83EF91E0215080409040E1F700C071
S11301F0000076CF1F920F920FB60F9211248F93A7
S11302008091C600809300018091C00085FFFCCFDF
S11302108F910F900FBE0F901F9018951F920F9201
S11302200FB60F9211248F93EF93FF938091B9002F
S11302308C7F8039C9F038F4803781F08038A1F0A0
S1130240803639F50BC0883BC9F018F4883AB1F010
S113025020C0803CC1F0883CB1F01BC0ECEBF0E066
S11302608081806880831AC08091BB0080930101E3
S1130270ECEBF0E080818068808310C0ECEBF0E070
S11302808081856C8083ECEBF0E08081846C8083DA
S113029005C0ECEBF0E0808180698083FF91EF91F1
S11302A08F910F900FBE0F901F9018958AB18E7F7B
S11302B08AB98AB182608AB91092C000E1ECF0E098
S11302C01082808188698083E2ECF0E01082808172
S11302D08660808387E690E09093C5008093C40095
S11302E00895AC0120E007C09091C00095FFFCCFB9
S11302F03093C6002F5FFA01E20FF11D30813111F6
S1130300F3CF0895CF93DF9300D000D000D0CDB7C2
S1130310DEB74AE050E0BE016F5F7F4F0E94A30149
S1130320CE0101960E94710126960FB6F894DEBFA5
S11303300FBECDBFDF91CF910895EE0FFF1F059043
S1130340F491E02D09944532510520F4423010F027
S11303500C94AE01FB011082CB010895BB274A30F7
S113036031F4992322F4BDE2909581959F4F0C942A
S1130370BA01BB27FB015527AA27880F991FAA1F7B
S1130380A41710F0A41B83955051B9F7A05DAA33AC
S113039008F0A95DA193009779F7B111B193119277
S11303A0CB010C94D301DC01FC01672F71917723FD
S11303B0E1F7329704C07C916D9370836291AE171C
S10D03C0BF07C8F30895F894FFCFB7
S9030000FC
